:1000000009C00EC00DC00CC00BC00AC009C008C09A
:1000100007C006C011241FBECFE9CDBF02D0D1C199
:10002000EFCF2F923F924F925F926F927F928F927B
:100030009F92AF92BF92CF92DF92EF92FF920F9377
:100040001F93CF93DF938FEF87BB18BA20E030E088
:1000500041E0A1E0B0E0C3ECD9E0F2E04F2E512C3A
:10006000E1EC2E2EE9E03E2E7FEBA72E79E0B72EB5
:1000700067E0862E912C5CEB652E59E0752E0CE026
:1000800010E097EBE92E99E0F92E82E1C82ED12CF1
:100090000FC088B3842788BBCD010197F1F788B3DF
:1000A000842788BB84EC99E00197F1F72F5F3F4FDD
:1000B0002436310574F320E030E088B3842788BB10
:1000C000CD010197F1F788B3842788BBCE01019752
:1000D000F1F72F5F3F4F2436310579F720E030E00C
:1000E00088B3842788BBCD010197F1F788B38427B3
:1000F00088BBCE010197F1F72F5F3F4F24363105C2
:1001000079F720E030E088B3842788BBC2010197EB
:10011000F1F788B3842788BBC1010197F1F72F5FFE
:100120003F4F2436310579F720E030E088B384274B
:1001300088BB84E090E00197F1F788B3842788BBFF
:10014000C5010197F1F72F5F3F4F2436310571F755
:1001500020E030E088B3842788BBC4010197F1F721
:1001600088B3842788BBC3010197F1F72F5F3F4F06
:100170002436310579F720E030E088B3842788BB46
:10018000C8010197F1F788B3842788BBC70101979D
:10019000F1F72F5F3F4F2436310579F720E030E04B
:1001A00061EB79E088B3842788BBC6010197F1F73A
:1001B00088B3842788BBCB010197F1F72F5F3F4FAE
:1001C0002436310579F720E030E0E9E1F0E06AEA31
:1001D00079E088B3842788BBCF010197F1F788B312
:1001E000842788BBCB010197F1F72F5F3F4F24365F
:1001F000310579F720E030E0E1E2F0E062EA79E011
:1002000088B3842788BBCF010197F1F788B384278F
:1002100088BBCB010197F1F72F5F3F4F24363105A3
:1002200079F720E030E0ECE2F0E067E979E088B3CC
:10023000842788BBCF010197F1F788B3842788BB57
:10024000CB010197F1F72F5F3F4F2436310579F746
:1002500020E030E0E1E2F0E062EA79E088B3842770
:1002600088BBCF010197F1F788B3842788BBCB0106
:100270000197F1F72F5F3F4F2436310579F720E0E2
:1002800030E0E9E1F0E06AEA79E088B3842788BBEE
:10029000CF010197F1F788B3842788BBCB01019781
:1002A000F1F72F5F3F4F2436310579F720E030E03A
:1002B00061EB79E088B3842788BBC6010197F1F729
:1002C00088B3842788BBCB010197F1F72F5F3F4F9D
:1002D0002436310579F720E030E088B3842788BBE5
:1002E000C8010197F1F788B3842788BBC70101973C
:1002F000F1F72F5F3F4F2436310579F720E030E0EA
:1003000088B3842788BBC4010197F1F788B3842799
:1003100088BBC3010197F1F72F5F3F4F24363105AA
:1003200079F720E030E088B3842788BB84E090E050
:100330000197F1F788B3842788BBC5010197F1F7CE
:100340002F5F3F4F2436310571F720E030E088B34E
:10035000842788BBC2010197F1F788B3842788BB43
:10036000C1010197F1F72F5F3F4F2436310579F72F
:1003700020E030E088B3842788BBCD010197F1F7F6
:1003800088B3842788BBCE010197F1F72F5F3F4FD9
:100390002436310579F720E030E088B3842788BB24
:1003A000CD010197F1F788B3842788BBCE0101976F
:1003B000F1F72F5F3F4F2436310579F720E030E029
:0603C00077CEF894FFCF98
:00000001FF
